:100000000C9434000C9451000C9451000C94510049
:100010000C9451000C9451000C9451000C9451001C
:100020000C9451000C9451000C9451000C9451000C
:100030000C9451000C9451000C9451000C945100FC
:100040000C9451000C9451000C94FA000C94510043
:100050000C9451000C9451000C9451000C945100DC
:100060000C9451000C94510011241FBECFEFD8E026
:10007000DEBFCDBF11E0A0E0B1E0E6E8FAE002C0EB
:1000800005900D92AE32B107D9F721E0AEE2B1E0B2
:1000900001C01D92A434B207E1F70E94F7010C944D
:1000A00041050C940000CF92DF92EF92FF926B011A
:1000B0007C01CA01B901689413F8969587957795E4
:1000C00067951694D1F7A70196010E94010221506D
:1000D00031093093C5002093C4001092C00088E11C
:1000E0008093C10086E08093C200FF90EF90DF9084
:1000F000CF9008959091C00095FFFCCF8093C600EB
:1001000008958091C0008823E4F78091C600089587
:100110000F931F93CF93DF938C01C0E0D0E0F801E1
:10012000EC0FFD1F8081882321F00E947A00219628
:10013000F6CF8DE00E947A00DF91CF911F910F9151
:1001400008958AB182608AB98AB18E7F8AB920E027
:1001500034E244EF50E060E875E280E090E00E9415
:1001600053002FE38DE093E0215080409040E1F771
:1001700000C0000080E091E00E94880087EA91E6DC
:100180000197F1F700C000008BE091E00E94880029
:1001900087EA91E60197F1F700C0000084E191E061
:1001A0000E94880087EA91E60197F1F700C00000FD
:1001B0008CE191E00E94880087EA91E60197F1F7CF
:1001C00000C00000089520912E0130912F012331AD
:1001D000310578F4A9014F5F5F4F50932F01409391
:1001E0002E01F901E05DFE4F8083FA01E05DFE4FD4
:1001F000108208951F920F920FB60F9211242F9321
:100200003F934F935F936F937F938F939F93AF939E
:10021000BF93EF93FF930E9481000E94E300FF9140
:10022000EF91BF91AF919F918F917F916F915F916E
:100230004F913F912F910F900FBE0F901F901895E7
:1002400085B18E7F85B985B1816085B985B18E7F95
:1002500085B90895CF93C82F8BB19C2F907F8F7055
:10026000892B8BB90E94200120E1C29FC00111247B
:100270009BB19F70892B8BB90E942001CF9108956B
:10028000E9EFF0E03197F1F700C0000095B19D7FF4
:1002900095B90E942A010895CF93DF93EA019FEF59
:1002A000980F923000F59FEF960F9832E0F4282FC8
:1002B00030E021503109862F90E4299F800D1124D0
:1002C00081580E9440018881882369F089EF90E07D
:1002D0000197F1F700C0000085B1826085B989916E
:1002E0000E942A01F0CFDF91CF91089584B18360FD
:1002F00084B98AB1806F8AB985B18D7F85B985EA65
:100300009EE00197F1F700C000008BB18F70806311
:100310008BB90E94200181EE94E00197F1F700C0B3
:1003200000000E94200189EF90E00197F1F700C0E2
:1003300000000E94200189EF90E00197F1F700C0D2
:1003400000008BB18F7080628BB90E94200188E21F
:100350000E94400188E00E94400181E00E9440012B
:1003600086E00E9440018CE00E94400108950F93B6
:100370001F93CF93DF93CDB7DEB764970FB6F89492
:10038000DEBF0FBECDBF80912E0190912F011816B8
:10039000190614F580E391E00E9423029F938F9346
:1003A00083E291E09F938F931F9284E18F938E015C
:1003B0000F5F1F4F1F930F930E944902A80161E036
:1003C00082E00E944C0110922F0110922E010FB674
:1003D000F894DEBF0FBECDBF64960FB6F894DEBFB3
:1003E0000FBECDBFDF91CF911F910F9108950E9455
:1003F000A1000E9420010E94760178940E94B7011A
:10040000FDCFA1E21A2EAA1BBB1BFD010DC0AA1F26
:10041000BB1FEE1FFF1FA217B307E407F50720F06D
:10042000A21BB30BE40BF50B661F771F881F991FE8
:100430001A9469F760957095809590959B01AC0131
:10044000BD01CF010895FC0188279927E8942191E7
:100450002032E9F3293010F02E30C8F32B3241F06E
:100460002D3239F4689404C00E944102820F911D1C
:10047000219120532A30C0F31EF4909581959F4F0F
:1004800008957AE0979F902D879F802D910D1124DC
:100490000895AEE0B0E0EFE4F2E00C9418050D89A9
:1004A0001E898F89988D26E02C831A83098397FFF4
:1004B00002C080E090E801979E838D83AE01455E87
:1004C0005F4F698D7A8DCE0101960E9479024D8130
:1004D0005E8157FD0AC02F813885421753070CF4FF
:1004E0009A01F801E20FF31F10822E96E4E00C94BB
:1004F0003405ABE0B0E0EFE7F2E00C940A056C01E4
:100500007B018A01FC0117821682838181FFCCC1A5
:10051000CE0101963C01F6019381F70193FD85918F
:1005200093FF81917F01882309F4BAC1853239F4A0
:1005300093FD859193FF81917F01853229F4B60166
:1005400090E00E947004E7CF912C212C312CFFE128
:10055000F315D8F08B3279F038F4803279F08332A9
:10056000A1F4232D20611DC08D3261F0803369F428
:10057000232D216016C0832D8260382EE32DE46088
:100580003E2E2AC0F32DF8601DC037FC2DC020ED93
:10059000280F2A3040F08E32B9F436FC81C1232D69
:1005A0002064322E19C036FE06C08AE0989E200DC7
:1005B0001124922E11C0EAE02E9E200D1124222E2D
:1005C000F32DF0623F2E08C08C3621F4832D806815
:1005D000382E02C0883641F4F70193FD859193FFD0
:1005E00081917F018111B3CF982F9F7D95549330D6
:1005F00028F40C5F1F4F9FE399830DC0833631F0C1
:10060000833771F0833509F059C021C0F80180812A
:1006100089830E5F1F4F88248394912C530113C04C
:100620002801F2E04F0E511CF801A080B18036FE87
:1006300003C0692D70E002C06FEF7FEFC5010E941B
:1006400065044C018201F32DFF773F2E16C028016F
:1006500022E0420E511CF801A080B18036FE03C09A
:10066000692D70E002C06FEF7FEFC5010E945A0450
:100670004C01F32DF0683F2E820133FC1BC0822D0C
:1006800090E088169906B0F4B60180E290E00E94EE
:1006900070042A94F4CFF50137FC859137FE8191DF
:1006A0005F01B60190E00E94700421102A9421E0BD
:1006B000821A91088114910471F7E8C0843611F010
:1006C000893641F5F80137FE07C06081718182816A
:1006D00093810C5F1F4F08C060817181072E000C51
:1006E000880B990B0E5F1F4FF32DFF763F2E97FF60
:1006F00009C090958095709561957F4F8F4F9F4F62
:10070000F0683F2E2AE030E0A3010E94AC04882E5E
:10071000861845C0853731F4232D2F7EB22E2AE06E
:1007200030E025C0932D997FB92E8F36C1F018F493
:10073000883579F0B5C0803719F0883721F0B0C01E
:10074000E92FE061BE2EB4FE0DC0FB2DF460BF2E7C
:1007500009C034FE0AC0292F2660B22E06C028E048
:1007600030E005C020E130E002C020E132E0F801D5
:10077000B7FE07C060817181828193810C5F1F4F3A
:1007800006C06081718180E090E00E5F1F4FA30181
:100790000E94AC04882E8618FB2DFF773F2E36FE74
:1007A0000DC0232D2E7FA22E891458F434FE0BC0C9
:1007B00032FC09C0832D8E7EA82E05C0B82CA32C38
:1007C00003C0B82C01C0B92CA4FE0FC0FE01E80D77
:1007D000F11D8081803321F49A2D997EA92E09C0C4
:1007E000A2FE06C0B394B39404C08A2D867809F0A3
:1007F000B394A3FC11C0A0FE06C0B21488F4280C68
:10080000922C9B180EC0B21460F4B60180E290E006
:100810000E947004B394F7CFB21418F42B1802C0DE
:10082000982C212CA4FE10C0B60180E390E00E9419
:100830007004A2FE17C0A1FC03C088E790E002C0CC
:1008400088E590E0B6010CC08A2D867859F0A1FEAB
:1008500002C08BE201C080E2A7FC8DE2B60190E00D
:100860000E947004891438F4B60180E390E00E947D
:1008700070049A94F7CF8A94F301E80DF11D8081FA
:10088000B60190E00E9470048110F5CF222009F497
:1008900042CEB60180E290E00E9470042A94F6CF26
:1008A000F6018681978102C08FEF9FEF2B96E2E1E0
:1008B0000C942605FC010590615070400110D8F79A
:1008C000809590958E0F9F1F0895FC016150704098
:1008D00001900110D8F7809590958E0F9F1F089575
:1008E0000F931F93CF93DF93FB01238121FD03C05F
:1008F0008FEF9FEF2CC022FF16C0468157812481C5
:1009000035814217530744F4A081B1819D012F5FC7
:100910003F4F318320838C93268137812F5F3F4F58
:100920003783268314C08B01EC01FB010084F18521
:10093000E02D0995892BE1F6D80116968D919C91B1
:100940001797019617969C938E931697CE01DF9179
:10095000CF911F910F910895FA01AA27283051F1E4
:10096000203181F1E8946F936E7F6E5F7F4F8F4FE0
:100970009F4FAF4FB1E03ED0B4E03CD0670F781F3F
:10098000891F9A1FA11D680F791F8A1F911DA11D24
:100990006A0F711D811D911DA11D20D009F468945D
:1009A0003F912AE0269F11243019305D3193DEF605
:1009B000CF010895462F4770405D4193B3E00FD0BB
:1009C000C9F7F6CF462F4F70405D4A3318F0495DA6
:1009D00031FD4052419302D0A9F7EACFB4E0A69589
:1009E0009795879577956795BA95C9F700976105AB
:1009F000710508959B01AC010A2E06945795479501
:100A000037952795BA95C9F7620F731F841F951FF5
:100A1000A01D08952F923F924F925F926F927F9206
:100A20008F929F92AF92BF92CF92DF92EF92FF92FE
:100A30000F931F93CF93DF93CDB7DEB7CA1BDB0BAA
:100A40000FB6F894DEBF0FBECDBF09942A8839884F
:100A500048885F846E847D848C849B84AA84B98456
:100A6000C884DF80EE80FD800C811B81AA81B98162
:100A7000CE0FD11D0FB6F894DEBF0FBECDBFED0176
:060A80000895F894FFCF79
:100A860041542B44454641554C540041542B423960
:100A96003630300041542B433030310041542B4620
:0E0AA60055330056616C6F723A2025640000D3
:00000001FF
