:100000000C945A000C9477000C9430010C947700F7
:100010000C9477000C9477000C9477000C94770084
:100020000C9477000C9477000C9477000C94770074
:100030000C9477000C9477000C9477000C94770064
:100040000C9477000C9477000C9477000C94770054
:100050000C9477000C9477000C9477000C94770044
:100060000C9477000C9477000C9477000C94770034
:100070000C9477000C9477000C9477000C94770024
:100080000C9477000C9477000C9477000C94770014
:100090000C9477000C9477000C9477000C94770004
:1000A0000C9477000C9477000C9477000C947700F4
:1000B0000C94770011241FBECFEFD8E0DEBFCDBF78
:1000C00011E0A0E0B1E0E0E4FAE002C005900D929A
:1000D000A832B107D9F721E0A8E2B1E001C01D9232
:1000E000A833B207E1F70E9455010C941E050C9449
:1000F00000008091280190912901A0912A01B091DE
:100100002B010196A11DB11D809328019093290117
:10011000A0932A01B0932B0189EF90E00197F1F7AA
:1001200000C00000609128017091290180912A018E
:1001300090912B010895CF92DF92EF92FF926B0185
:100140007C01CA01B901689413F896958795779553
:1001500067951694D1F7A70196010E94EA012150F4
:1001600031093093C5002093C4001092C00088E18B
:100170008093C10086E08093C200FF90EF90DF90F3
:10018000CF9008959091C00095FFFCCF8093C6005A
:1001900008950F931F93CF93DF938C01C0E0D0E0BD
:1001A000F801EC0FFD1F8081882321F00E94C2001E
:1001B0002196F6CF8DE00E94C200DF91CF911F9172
:1001C0000F9108958AB182608AB98AB18E7F8AB907
:1001D00020E034E244EF50E060E875E280E090E037
:1001E0000E949B002FE38DE093E0215080409040DF
:1001F000E1F700C0000080E091E00E94C90087EABA
:1002000091E60197F1F700C000008BE091E00E94B9
:10021000C90087EA91E60197F1F700C0000084E188
:1002200091E00E94C90087EA91E60197F1F700C0CA
:1002300000008CE191E00E94C90087EA91E60197F5
:10024000F1F700C00000089587B1877F87B9E9E61C
:10025000F0E08081836080838DB382608DBB0895E0
:100260001F920F920FB60F9211248F939F93AF930B
:10027000BF938091340190913501A0913601B091E6
:1002800037010196A11DB11D809334019093350172
:10029000A0933601B0933701BF91AF919F918F9199
:1002A0000F900FBE0F901F901895CF93DF93CDB78F
:1002B000DEB72A970FB6F894DEBF0FBECDBF0E94FF
:1002C000E2000E94240178940E947900009130019C
:1002D000109131012091320130913301DC01CB01C9
:1002E000801B910BA20BB30B883E9340A105B10577
:1002F00058F3F8940E947900009130011091310177
:1003000020913201309133016B017C01C01AD10A76
:10031000E20AF30AA70196016CEE7EEF8FEF9FEFE2
:100320000E94EA016091340170913501809136019B
:10033000909137010E94DA0160932C0170932D0196
:1003400080932E0190932F010E94790060933001D9
:1003500070933101809332019093330110923401F4
:1003600010923501109236011092370180912F01C1
:100370008F9380912E018F9380912D018F93809187
:100380002C018F9383E291E09F938F931F928AE0D9
:100390008F938E010F5F1F4F1F930F930E942602B2
:1003A000C8010E94C90078940FB6F894DEBF0FBE52
:1003B000CDBF8ACFDB018F939F930E940C02BF9128
:1003C000AF91A29F800D911DA39F900DB29F900DA4
:1003D00011240895A1E21A2EAA1BBB1BFD010DC01A
:1003E000AA1FBB1FEE1FFF1FA217B307E407F507E5
:1003F00020F0A21BB30BE40BF50B661F771F881FC1
:10040000991F1A9469F760957095809590959B0156
:10041000AC01BD01CF0108950E941702A59F900D68
:10042000B49F900DA49F800D911D11240895A29F4B
:10043000B001B39FC001A39F700D811D1124911DB8
:10044000B29F700D811D1124911D0895AEE0B0E0A2
:10045000ECE2F2E00C94F5040D891E898F89988DE9
:1004600026E02C831A83098397FF02C080E090E87E
:1004700001979E838D83AE01455E5F4F698D7A8DB6
:10048000CE0101960E9456024D815E8157FD0AC041
:100490002F813885421753070CF49A01F801E20FB7
:1004A000F31F10822E96E4E00C941105ABE0B0E04F
:1004B000ECE5F2E00C94E7046C017B018A01FC019D
:1004C00017821682838181FFCCC1CE0101963C0147
:1004D000F6019381F70193FD859193FF81917F014F
:1004E000882309F4BAC1853239F493FD859193FFCD
:1004F00081917F01853229F4B60190E00E944D047C
:10050000E7CF912C212C312CFFE1F315D8F08B3261
:1005100079F038F4803279F08332A1F4232D206110
:100520001DC08D3261F0803369F4232D216016C027
:10053000832D8260382EE32DE4603E2E2AC0F32DF9
:10054000F8601DC037FC2DC020ED280F2A3040F088
:100550008E32B9F436FC81C1232D2064322E19C0AD
:1005600036FE06C08AE0989E200D1124922E11C0FE
:10057000EAE02E9E200D1124222EF32DF0623F2E54
:1005800008C08C3621F4832D8068382E02C088364E
:1005900041F4F70193FD859193FF81917F018111D2
:1005A000B3CF982F9F7D9554933028F40C5F1F4F45
:1005B0009FE399830DC0833631F0833771F0833523
:1005C00009F059C021C0F801808189830E5F1F4F57
:1005D00088248394912C530113C02801F2E04F0E1C
:1005E000511CF801A080B18036FE03C0692D70E077
:1005F00002C06FEF7FEFC5010E9442044C018201EF
:10060000F32DFF773F2E16C0280122E0420E511C29
:10061000F801A080B18036FE03C0692D70E002C0F1
:100620006FEF7FEFC5010E9437044C01F32DF06896
:100630003F2E820133FC1BC0822D90E08816990664
:10064000B0F4B60180E290E00E944D042A94F4CF09
:10065000F50137FC859137FE81915F01B60190E08D
:100660000E944D0421102A9421E0821A91088114DD
:10067000910471F7E8C0843611F0893641F5F8012C
:1006800037FE07C060817181828193810C5F1F4FAB
:1006900008C060817181072E000C880B990B0E5FDA
:1006A0001F4FF32DFF763F2E97FF09C09095809541
:1006B000709561957F4F8F4F9F4FF0683F2E2AE0D6
:1006C00030E0A3010E948904882E861845C0853732
:1006D00031F4232D2F7EB22E2AE030E025C0932D59
:1006E000997FB92E8F36C1F018F4883579F0B5C0EE
:1006F000803719F0883721F0B0C0E92FE061BE2EB5
:10070000B4FE0DC0FB2DF460BF2E09C034FE0AC03C
:10071000292F2660B22E06C028E030E005C020E177
:1007200030E002C020E132E0F801B7FE07C060818E
:100730007181828193810C5F1F4F06C0608171813E
:1007400080E090E00E5F1F4FA3010E948904882E75
:100750008618FB2DFF773F2E36FE0DC0232D2E7FF2
:10076000A22E891458F434FE0BC032FC09C0832D2C
:100770008E7EA82E05C0B82CA32C03C0B82C01C0B7
:10078000B92CA4FE0FC0FE01E80DF11D808180335D
:1007900021F49A2D997EA92E09C0A2FE06C0B39419
:1007A000B39404C08A2D867809F0B394A3FC11C0D9
:1007B000A0FE06C0B21488F4280C922C9B180EC020
:1007C000B21460F4B60180E290E00E944D04B3944C
:1007D000F7CFB21418F42B1802C0982C212CA4FEC9
:1007E00010C0B60180E390E00E944D04A2FE17C045
:1007F000A1FC03C088E790E002C088E590E0B60164
:100800000CC08A2D867859F0A1FE02C08BE201C08F
:1008100080E2A7FC8DE2B60190E00E944D048914AD
:1008200038F4B60180E390E00E944D049A94F7CF2B
:100830008A94F301E80DF11D8081B60190E00E94D9
:100840004D048110F5CF222009F442CEB60180E29A
:1008500090E00E944D042A94F6CFF601868197819C
:1008600002C08FEF9FEF2B96E2E10C940305FC0191
:100870000590615070400110D8F7809590958E0FCB
:100880009F1F0895FC016150704001900110D8F73E
:10089000809590958E0F9F1F08950F931F93CF9370
:1008A000DF93FB01238121FD03C08FEF9FEF2CC05D
:1008B00022FF16C046815781248135814217530794
:1008C00044F4A081B1819D012F5F3F4F318320838C
:1008D0008C93268137812F5F3F4F3783268314C047
:1008E0008B01EC01FB010084F185E02D0995892B3A
:1008F000E1F6D80116968D919C911797019617965F
:100900009C938E931697CE01DF91CF911F910F91FB
:100910000895FA01AA27283051F1203181F1E89495
:100920006F936E7F6E5F7F4F8F4F9F4FAF4FB1E0E2
:100930003ED0B4E03CD0670F781F891F9A1FA11DDD
:10094000680F791F8A1F911DA11D6A0F711D811DDE
:10095000911DA11D20D009F468943F912AE0269FA3
:1009600011243019305D3193DEF6CF010895462F02
:100970004770405D4193B3E00FD0C9F7F6CF462FE3
:100980004F70405D4A3318F0495D31FD405241934C
:1009900002D0A9F7EACFB4E0A69597958795779509
:1009A0006795BA95C9F700976105710508959B0190
:1009B000AC010A2E06945795479537952795BA9519
:1009C000C9F7620F731F841F951FA01D08952F92F2
:1009D0003F924F925F926F927F928F929F92AF92CF
:1009E000BF92CF92DF92EF92FF920F931F93CF931C
:1009F000DF93CDB7DEB7CA1BDB0B0FB6F894DEBFB3
:100A00000FBECDBF09942A88398848885F846E84D8
:100A10007D848C849B84AA84B984C884DF80EE8022
:100A2000FD800C811B81AA81B981CE0FD11D0FB62B
:100A3000F894DEBF0FBECDBFED010895F894FFCF4F
:100A400041542B44454641554C540041542B4239A6
:100A50003630300041542B433030310041542B4666
:080A6000553300256C75000000
:00000001FF
