:100000000C9434000C9449000C9449000C94490061
:100010000C9449000C9449000C9449000C9449003C
:100020000C9449000C9449000C9449000C9449002C
:100030000C9449000C9449000C9449000C9449001C
:100040000C9449000C9449000C9449000C9449000C
:100050000C9449000C9449000C9449000C944900FC
:100060000C9449000C94490011241FBECFEFD8E036
:10007000DEBFCDBF11E0A0E0B1E0E8EFF1E002C0EB
:1000800005900D92A432B107D9F70E94D4000C94C8
:10009000FA000C940000CF92DF92EF92FF926B0176
:1000A0007C01CA01B901689413F8969587957795F4
:1000B00067951694D1F7A70196010E94D8002150A8
:1000C00031093093C5002093C4001092C00088E12C
:1000D0008093C10086E08093C200FF90EF90DF9094
:1000E000CF9008959091C00095FFFCCF8093C600FB
:1000F00008950F931F93CF93DF938C01C0E0D0E05E
:10010000F801EC0FFD1F8081882321F00E9472000E
:100110002196F6CF8DE00E947200DF91CF911F9162
:100120000F9108958AB180628AB98AB18F7E8AB9A7
:1001300020E034E244EF50E060E875E280E090E0D7
:100140000E944B002FE38DE093E0215080409040CF
:10015000E1F700C0000080E091E00E94790087EAAA
:1001600091E60197F1F700C000008BE091E00E945A
:10017000790087EA91E60197F1F700C0000084E179
:1001800091E00E94790087EA91E60197F1F700C0BB
:1001900000008CE191E00E94790087EA91E60197E6
:1001A000F1F700C0000008950E9492007894FFCFFC
:1001B000A1E21A2EAA1BBB1BFD010DC0AA1FBB1F6B
:1001C000EE1FFF1FA217B307E407F50720F0A21BDD
:1001D000B30BE40BF50B661F771F881F991F1A944A
:1001E00069F760957095809590959B01AC01BD0174
:0801F000CF010895F894FFCF40
:1001F80041542B44454641554C540041542B4239F7
:100208003630300041542B433030310041542B46B6
:04021800553300005A
:00000001FF
